:020000040800F2
:10000000D0060020A901000895190008D91600089B
:100010009119000873130008E32400080000000091
:10002000000000000000000000000000A51E000805
:10003000BD150008000000008F1D0008911F00087A
:10004000C3010008C3010008C3010008C301000880
:10005000C3010008C3010008C3010008C301000870
:10006000C3010008C3010008C3010008C301000860
:10007000C3010008C3010008C3010008C301000850
:10008000C3010008C3010008C3010008C301000840
:10009000C3010008C3010008C3010008C301000830
:1000A000C3010008C3010008C3010008C301000820
:1000B000C301000809200008C3010008C3010008AB
:1000C000C3010008C3010008C3010008C301000800
:1000D000C3010008C9220008C3010008C3010008C9
:1000E000C3010008C3010008C301000800F002F8C2
:1000F00000F04AF80AA090E8000C82448344AAF178
:100100000107DA4501D100F03FF8AFF2090EBAE875
:100110000F0013F0010F18BFFB1A43F0010318473B
:100120007C3F00009C3F0000103A24BF78C878C193
:10013000FAD8520724BF30C830C144BF04680C60ED
:10014000704700000023002400250026103A28BF35
:1001500078C1FBD8520728BF30C148BF0B60704739
:10016000662903F06281642900F07A8000207047DC
:100170001FB500F0C1FB04000020002102F08CFC40
:10018000E0601FBD10B510BD00F0B6FC1146FFF7D2
:10019000EFFF02F0AFFA00F0D4FC03B4FFF7F2FF78
:1001A00003BC00F017FD00000948804709480047DC
:1001B000FEE7FEE7FEE7FEE7FEE7FEE7FEE7FEE717
:1001C000FEE7FEE704480549054A064B7047000074
:1001D000A91F0008ED000008D0000020D006002074
:1001E000D0020020D00200200FB41CB5074B06AA95
:1001F0007B4469460090059800F065FB0020694645
:1002000000F074FB1CBC5DF814FB0000F906000054
:1002100070B5044685690068C10601D5302600E046
:100220002026C00707D070BDD4E901213046904791
:10023000206A401C20626D1EF6D570BD70B5044664
:1002400085690078C00707D170BDD4E9012120205D
:100250009047206A401C20626D1EF6D570BD0000DC
:100260002DE9F0410646002410687529314616A58F
:1002700010D0AFF30080002802DA404213A507E057
:1002800031688A0701D512A502E0490704D511A5F6
:10029000012401E0AFF3008000210A2206F12407C7
:1002A00009E0B0FBF2FCB0FBF2F302FB1C003030C3
:1002B00078541846491C0028F3D123462A46304674
:1002C000BDE8F04100F092B8000000002D000000F1
:1002D0002B000000200000002DE9F0474FF0000A3D
:1002E00089460446C0F820A02046E16888470028D7
:1002F00076D0252806D0D4E901219047206A401CF9
:100300002062F1E7E168204600258847C4F81CA078
:1003100006460027C4F818A02A2E09D0304602F05D
:1003200069F938B304EB8708303EC8F8186019E063
:1003300059F8041B204604EB87029161E168884765
:10034000012F064618D1E069002820DA25F02005A3
:100350001DE0D8F8180000EB800006EB40003038B4
:10036000C8F818002046E1688847064602F042F9BE
:100370000028EED1012F0AD02E2E08D12046E168A8
:1003800088477F1C0646022F45F02005C4DBA06984
:10039000002803DA404245F00105A061E80701D0DA
:1003A00025F01005B6B1A6F14100192802D8203673
:1003B00045F400654A463146204625604D46FFF724
:1003C000CFFE58B1012806D0ED1D25F0070000F141
:1003D000080989E704E005F1040985E730468AE762
:1003E000206ABDE8F0877047704770472DE9F047F5
:1003F0000D4699469246044600F124080168880695
:1004000004D5E06921F01001216000E00120A8423C
:1004100001DD471B00E00027A1697A1902EB090002
:10042000081AA0612078C00602D42046FFF7F0FE2B
:10043000002608E0D4E901211AF806009047206A56
:10044000401C761C20624E45F4DB2078C0060AD59D
:100450002046FFF7DDFE06E0D4E901213020904779
:10046000206A401C2062381EA7F10107F4DC07E077
:10047000D4E9012118F805009047206A401C206249
:10048000281EA5F10105F3DC2046FFF7D7FE2078F2
:10049000000602D50220BDE8F0870120FBE7704787
:1004A0002DE9FF4F0C461E464FF0FF378BB0D2E9C7
:1004B0000001DDF860800A908A46C1F30A5505B94B
:1004C0003D46002108464FF00000BAF1000F00F44D
:1004D000400005DA00EB80004FF4400101EA5000D3
:1004E0004FEA9059B9F1010F00DDB9460A9850EA78
:1004F0004A000ED044F61050A5F2FF3545432F14A4
:10050000B8F1000F1ED07542291E1EDDC9F1000290
:100510001CE0B8F1010F4FF0000001D0302103E0E2
:10052000F24305E02154401CB042FBDB3046002280
:10053000002121540B99C1F80880C1E900200FB0B7
:10054000BDE8F08FBD1B6D1CDEE74A4600DA69424C
:1005500006A800F05BFA06AB93E8070003AB83E85C
:10056000070050460A9900F03CFB8DE80700A0F513
:1005700000501F3800900398002D0ADD42F21F0141
:100580004A460844002303A90390684600F0A5FDED
:1005900009E0A0F500504A461F38002303A9039044
:1005A000684600F0AFFD8DE807000004000C03D0A2
:1005B0004FF0FF30410800E01046B8F1000F03D0C3
:1005C0000022009215461EE0751E05D400F098F931
:1005D000303262556D1EF9D5B3460122084302D070
:1005E00000227F1C04E02078302801D100227F1EE9
:1005F000002A099784D01DE0112D07DA00F080F958
:10060000303262556D1C50EA0102F5D1084302D028
:100610000098C8B10EE00021681E05E0235C625C12
:1006200063542254401E491C8142F7DBAB46A81B91
:10063000401E0990002004F80B000B98099AC0F89E
:100640000880C0E9002B7AE711264FF0000857E731
:100650002DE9F04F88460446D21D22F0070191B0E3
:10066000D1E90001CDE90A0101F0B0FF02460B9883
:10067000C00F01D02D2007E02068810701D52B2075
:1006800002E0202101EAC000032A099001D0072AD4
:1006900005DB03464146204600F078F90BE120785F
:1006A000800601D5E06900E00620B8F1650F8146BB
:1006B00006D0B8F1660F18D0B8F1670F70D131E0ED
:1006C0000020B9F1110F009001DB112301E009F1C5
:1006D00001030AAA01A90CA8FFF7E2FEDDE90C70EC
:1006E000002609F10105834647E001204B460090B2
:1006F0004FF000470AAA01A90CA8FFF7D1FEDDE9D7
:100700000DB00C995D46002610B909F101000D18D5
:10071000B9EB050003D4C0F1FF3609F10105A5EBE3
:1007200009002BE0B9F1010F01DA4FF001090020B7
:10073000B9F1110F0090484601DD112300E0034696
:100740000AAA01A90CA8FFF7ABFEDDE90C704D4623
:1007500000268346207800070AD4AB4500DA5D46C0
:1007600001A8012D04DD411911F8011C302907D021
:100770004F4502DA17F1040F04DA012082460FE038
:100780006D1EEEE7002F02DCED1B3E4403E0781CFB
:10079000A84200DD7D1CB81B00F1010A4FF00047A4
:1007A0002078000703D4AA4501DB4FF0FF3A00216F
:1007B000B7F1004F0DF143088DF8431024D002200B
:1007C0002B23002F01DA7F422D230A21021EA0F1E4
:1007D000010000DC5FB197FBF1FC97FBF1F201FB3C
:1007E0001C7C17460CF1300C08F801CDEEE7A8F19F
:1007F000010003702188090501D5452100E065212C
:10080000A0F1010800F8011C09980FA9A1EB080745
:10081000FF1D00B10120411901EBEA70A1693844C4
:10082000081A401EA0612078C00602D42046FFF7B7
:10083000EFFC099828B1D4E901219047206A401CB7
:1008400020622078C00622D52046FFF7E1FC1EE09A
:10085000002E04DBB34502DD01A8805D00E03020FE
:10086000D4E901219047206A401C2062761CAAF13D
:1008700001005FEA000A0AD100F03EF8C068016892
:10088000405CD4E901219047206A401C2062281E68
:10089000A5F10105DCDC07E0D4E9012118F8010B22
:1008A0009047206A401C2062381EA7F10107F3DC44
:1008B0002046FFF7C3FC032011B041E601694A1C42
:1008C00002610878704700B58FB0CDE90131002191
:1008D000059105497944CDE9031011466846FFF7B3
:1008E000FBFC0FB000BD0000E5FFFFFF0A6802F847
:1008F000010B0A6070470000004870478C00002020
:1009000030B5B0F10A024FEA900E71F100034EEAE1
:10091000817EB0EB0E0061EB91014FEA101E4EEAB2
:10092000017E10EB0E0041EB11114FEA102E4EEA42
:10093000016E10EB0E0041EB11214FEA104E4EEA12
:10094000014E10EB0E0041EB1141401841F1000146
:100950004FEAD00040EA41704FEAD10110EB800528
:100960004FEA810444EA907444EB01046D1944EBAE
:100970000404521BA3414FF0000348BF0A3200D5C4
:1009800030BD401C41F1000130BD00002DE9F041B7
:100990001F46044603260168072A01F4006004DBB1
:1009A00008B116A505E016A503E008B115A500E0FD
:1009B00015A521F010002060A069C01EA0610FB134
:1009C000401EA0612046FFF723FC4FB1D4E901216E
:1009D00038469047206A401C2062C01C206206E016
:1009E000206AFAE7D4E9012115F8010B9047761E39
:1009F000F8D22046FFF722FCBDE8F0814E414E00C0
:100A00006E616E00494E4600696E66002DE9F04742
:100A1000814616468AB0354878440DC88DE80D00E9
:100A200032487844801C03AC0DC884E80D0041F6C0
:100A30009B300844372190FBF1F290FBF1F5A5F1D2
:100A4000800501FB12041B3C02D56442012000E03A
:100A50000020DFF898A080460027FA44AAF1BE0AD9
:100A60000EE0E0070AD03246684607EB4701012353
:100A70000AEB810100F046FB8DE8070064107F1C43
:100A8000002CEED1194F7F44AE3F19E0E80715D096
:100A900007EB04100DF1180A90E80E008AE80E002A
:100AA000C068F04201D1981908903246012306A986
:100AB00003A800F027FB03AB83E807006D10641C5C
:100AC000002DE3D14FF0010332466946B8F1000F23
:100AD00003A802D000F001FB01E000F013FBC9E91C
:100AE0000001C9F808200AB0BDE8F08768360000A8
:100AF000004870476C0000207546FFF7F9FFAE46CE
:100B000005006946534620F00700854618B020B519
:100B1000FFF758FBBDE820404FF000064FF00007FC
:100B20004FF000084FF0000B21F00701AC46ACE895
:100B3000C009ACE8C009ACE8C009ACE8C0098D4602
:100B4000704710B50446AFF300802046BDE8104062
:100B5000FFF723BB4FF0013C50F8042B51F8043B46
:100B60009A4221D1A2EB0C03934313EACC1317D181
:100B700050F8042B51F8043B9A4215D1A2EB0C0318
:100B8000934313EACC130BD150F8042B51F8043BD8
:100B90009A4209D1A2EB0C03934313EACC13DBD0A6
:100BA0004FF00000704700BFD01A01BAB1FA81F1CE
:100BB00001F0180122FA01F0CB40C1F12001DBB2B3
:100BC000C0B2C01A2CFA01F3D11A914311EAC31131
:100BD000E6D1704701491820ABBEFEE726000200AF
:100BE00070475FEA400C08BF91F0000F4FEA8C237A
:100BF0004FEAC12243EA51514FEA1C5018BF00F599
:100C0000F0404FEA300018BF41F000415FEA6C5CF1
:100C100000F02980BCF1FF3F08BF40F080407047E2
:100C2000130C06BF12044FF0100C4FF0000C130E03
:100C300004BF12020CF1080C130F04BF12010CF1D7
:100C4000040C930F04BF92000CF1020CD30F04BFED
:100C500052000CF1010C11464FF00002A0F11F00F0
:100C6000A0EB0C00704711F0004F08BF704731F047
:100C700000413FF4D5AF0B0C06BF09044FF0100C38
:100C80004FF0000C0B0E04BF09020CF1080C0B0F07
:100C900004BF09010CF1040C8B0F04BF89000CF197
:100CA000020CCB0F04BF49000CF1010CCCF1200366
:100CB000A0EB0C0022FA03F302FA0CF241EA030162
:100CC00000F10100704720F07F4C80EA030023F020
:100CD0007F47ACEB070303F57C5300F0004003F1C2
:100CE000FF032DE980494FEA154B09B44FEA14433D
:100CF00025EA0B4E24EA03480FF2042606EB1327DD
:100D000049083E785FEA320203FB0667C7F5000731
:100D100007FB06F64FEA54374FEAD64606F10206BD
:100D200007FB066CCCF1005C4FEA1C472CEA074C31
:100D300007FB06F40CFB06F504EB15464FEA961686
:100D400034BF00204FF000404FEAD13706FB07FCCC
:100D50004FEA1C4C0CFB0BF7D21B03FB0CF761EBAF
:100D600007010CFB0EF7B0EB074072EB17420CFBD0
:100D700008F734BFA2EB0742B2EB074261EB174121
:100D80004FEA0C444FEA910706FB07FC4FEA1C4C64
:100D90000CFB0BF7B0EBC74072EB573203FB0CF7C1
:100DA00034BFA2EBC742B2EBC74261EB57310CFB39
:100DB0000EF7B0EBC70072EB57720CFB08F734BFAD
:100DC000A2EBC702B2EBC70261EB5771039F4FEA78
:100DD000816141EA921104EBCC044FEAD1374FEA2A
:100DE000826206FB07FC42EA90124FEA80604FEAFB
:100DF0001C4C0CFB0BF7D21B03FB0CF761EB070140
:100E00000CFB0EF7B0EB074072EB17420CFB08F738
:100E100034BFA2EB0742B2EB074261EB17414FEA46
:100E20008C554FEA910704EB9C2406FB07FC4FEA24
:100E30001C4C0CFB0BF7B0EBC74072EB573203FBBB
:100E40000CF734BFA2EBC742B2EBC74261EB57319C
:100E50000CFB0EF7B0EBC70072EB57720CFB08F7F8
:100E600034BFA2EBC702B2EBC70261EB577115EBBF
:100E70004C254FEA816141EA92114FEA82624FEAC2
:100E8000D13742EA901206FB07FC44F100044FEA16
:100E900080604FEA1C4C0CFB0BF7D21B03FB0CF7DA
:100EA00061EB07010CFB0EF7B0EB074072EB17424A
:100EB0000CFB08F734BFA2EB0742B2EB074261EB31
:100EC000174115EB1C154FEA813141EA92414FEA77
:100ED000823242EA90424FEA80304FEA0C7644F187
:100EE000000448EA03434EEA0B484FF0000EB2EB11
:100EF000080C71EB030724BF624639464EEB0E0E19
:100F00004FF0000B0018524149414BEB0B0BB2EB79
:100F1000080C71EB03077BF1000B24BF62463946D6
:100F20004EEB0E0E4FF0000B0018524149414BEBB7
:100F30000B0BB2EB080C71EB03077BF1000B24BF2A
:100F4000624639464EEB0E0E51EA020718BF46F0D4
:100F5000010616EB0E7655F1000254F1000103D59F
:100F6000BDE88901BDE80088BDE88901BDE8004809
:100F7000B619524141EB0101A3F101037047808092
:100F80007F7E7D7C7B7A79787776767574737271E3
:100F900071706F6E6E6D6C6C6B6A6A69686867669B
:100FA00066656464636362616160605F5F5E5E5D2D
:100FB0005D5C5C5B5B5A5A595958585757565655A1
:100FC00055555454535352525251515050504F4F03
:100FD0004F4E4E4D4D4D4C4C4C4B4B4B4A4A4A4953
:100FE0004949484848474747474646464545454496
:100FF0004444444343434342424242414141002B23
:101000009C4630D477002BD01CB54FEA370703B489
:101010004FF010004FF01001BAF1000F06D0BCF1F4
:10102000000FDCBF40F0080040F008014FF0000066
:101030000FBCBDE810400BF1010BBBF1010F08BF65
:101040005FEA170722BF12F1010211F101014FF00F
:10105000004143F1000300F0004043EA0000704704
:10106000F9D35708D0E746EA064613F1400F4FEA96
:1010700016461FDD13F1200FDFBF16430A4600217D
:1010800020335B42BED0C3F1200746EA064602FA8F
:1010900007F74FEA164646EA0706C3F1200722FA89
:1010A00003F201FA07F721FA03F14FF0000342EAD5
:1010B0000702A7E746EA020646EA06464FEA164650
:1010C00046EA0106BCBF46EA0646360C4FF000036E
:1010D0004FF000024FF0000194E72DE9804C9A4652
:1010E000934670B491E8380007C831EA400C48BF15
:1010F00034EA430C03D5FFF7E6FDFFF780FFF0BCB1
:10110000BDE8008C2DE9804C9A46934670B491E876
:10111000380007C810F0804F08BF13F0804F03D18C
:1011200000F005F8FFF76BFFF0BCBDE8008C20F085
:101130007F4780EA030023F07F4C07EB0C03A3F505
:101140007C5300F00040A3F1FE0392F0000F00F08A
:10115000B38095F0000F00F077802DE901494FEA48
:1011600011404FEA144621EA004800FB06FC24EA3D
:10117000064708FB06F607FB08F800FB07F718EB25
:1011800006484CEB164C4FEA124B18EB07484FEA57
:1011900015464CEB174022EA0B4E0BFB06FC25EAEA
:1011A00006470EFB06F607FB0EFE0BFB07F71EEBD2
:1011B000064E4CEB164C4FF000061EEB074E4CEB68
:1011C000174B18EB0B0840F1000018EB0E0B58EB17
:1011D000000840F100008F1A4FF000013CBFC943E6
:1011E000661B14BFB5EB040C00213CBFC943F61BC2
:1011F0004FEA17444EEA8E0E27EA04454FEA1C4791
:1012000004FB07622CEA074C05FB07F70CFB05F60D
:1012100004FB0CFC16EB074642EB174216EB0C46A0
:1012200042EB1C421BEB060658EB0202414146EA28
:101230009E0601D5BDE80189B619524141EB010175
:10124000A3F10103BDE801894FEA14454FEA1147B4
:1012500024EA054621EA074C05FB07F406FB07F7DD
:101260000CFB06F105FB0CFC11EB074144EB1744AA
:101270004FEA124711EB0C4144EB1C4422EA074CA5
:1012800005FB07F206FB07F70CFB06F605FB0CFC5B
:1012900016EB074642EB174216EB0C4642EB1C4599
:1012A0006A1854F1000148BF7047B619524141EB2A
:1012B0000101A3F10103704795F0000F37D04FEA09
:1012C00011424FEA144721EA024624EA074C02FB86
:1012D00007F106FB07F70CFB06F402FB0CFC14EB12
:1012E000074441EB17414FEA154714EB0C4441EB1F
:1012F0001C4125EA074C02FB07F506FB07F70CFB30
:1013000006F602FB0CFC16EB074645EB174516EB01
:101310000C4645EB1C42121951F1000148BF7047C1
:10132000B619524141EB0101A3F1010370474FEAA5
:1013300014454FEA114724EA054621EA074C05FB0C
:1013400007F106FB07F70CFB06F24FF0000605FB62
:101350000CFC12EB074241EB174112EB0C4251EB34
:101360001C4148BF7047921841EB0101A3F10103F2
:10137000704700BFFEE7000010B5002400F068F8D9
:1013800004E0601CC4B2012001F08EF90D48006831
:1013900008B1C82CF5DBC82C01DB012010BD0024EE
:1013A00004E0601CC4B2012001F07EF90548006829
:1013B00008B9F02CF5DBF02C01DB0120EEE7002072
:1013C000ECE70000248121422DE9F05F00F0BCF839
:1013D00000F0A4F8FFF7D0FFCC2000F0C1F8BE2049
:1013E00000F0BEF800F088F8834600F085F8044667
:1013F000072C08DDE043C4B26FEA0B0000F0FF0BDE
:101400004FF0000A01E04FF0010AA1464FEA09201F
:101410000FFA80F909EB0B000FFA80F9484601F04A
:1014200080FB07460022094B01F092FB054601F0C4
:1014300049FB0FFA80F9BAF1000F02D04846BDE827
:10144000F09FC9F1000000B2F9E700000000E43F9E
:1014500008B50121082000F0ABFC4FF40070ADF896
:10146000000048208DF8030003208DF80200694633
:10147000014800F0A4F808BD000C014008B50121A6
:10148000082000F095FC4FF40070ADF8000010202B
:101490008DF8030003208DF802006946014800F032
:1014A0008EF808BD000C014010B500F037F8FFF7CA
:1014B00063FF10BD10B5FFF7E1FF00200C49086085
:1014C000022001F0F1F801200A49C1F8A401FFF758
:1014D000BFFF0C2001F0E8F805488038006808B12B
:1014E000012400E00024322001F0DEF8204610BD87
:1014F000A48121420080214270B50026012508E028
:10150000FFF7D8FF0446E00140EA6600C6B2681C57
:10151000C5B2082DF4DD304670BD000010B5FFF7F0
:10152000ADFF00200649086040F2EE2001F0BCF853
:1015300001200449C1F8A4010F2001F0B5F810BD45
:10154000A48121420080214210B5FFF7E7FFFFF799
:1015500013FFCC2000F004F8442000F001F810BD87
:1015600070B50446FFF78AFF012520E004F001066C
:1015700064106EB100200F490860022001F094F859
:1015800001200D49C1F8A4013C2001F08DF80CE0C8
:101590000020084908603C2001F086F80120064937
:1015A000C1F8A401022001F07FF8681CC5B2082D23
:1015B000DCDD70BDA48121420080214270472DE90D
:1015C000F0410246002500260020002300240027C9
:1015D00091F803C00CF00F0591F803C00CF0100C4B
:1015E000BCF1000F03D091F802C04CEA050591F858
:1015F00000C0BCF1000F31D0146800202BE04FF088
:10160000010C0CFA00F3B1F800C00CEA03069E428C
:1016100020D183004FF00F0C0CFA03F7BC4305FAFE
:1016200003FC4CEA040491F803C0BCF1280F06D176
:101630004FF0010C0CFA00FCC2F814C00AE091F85B
:1016400003C0BCF1480F05D14FF0010C0CFA00FCAF
:10165000C2F810C0401C0828D1D31460B1F800C0F3
:10166000BCF1FF0F34DD546800202EE000F1080CBF
:101670004FF0010808FA0CF3B1F800C00CEA0306B9
:101680009E4221D183004FF00F0C0CFA03F7BC43AC
:1016900005FA03FC4CEA040491F803C0BCF1280FDE
:1016A00005D100F1080C08FA0CF8C2F8148091F882
:1016B00003C0BCF1480F07D100F1080C4FF001083E
:1016C00008FA0CF8C2F81080401C0828CED35460E9
:1016D000BDE8F0810161704700BFFEE708B5012158
:1016E000102000F065FB4FF4C050ADF8000014204E
:1016F0008DF8030003208DF8020069460448FFF7C7
:101700005EFF4FF4C0510248FFF7E4FF08BD000040
:101710000010014070B504461C48006820F070407D
:101720001A4908600846006840F0405008600025EB
:101730001DE0002016490860012000F0B5FFE00917
:1017400020B101201249091F086003E00020104960
:10175000091F08606006040E022000F0A5FF0120AA
:101760000B490860022000F09FFF681CC5B2082DDD
:10177000DFDB002006490860012000F095FF00BF74
:1017800000F054F80028FBD170BD0000000C0140AF
:10179000B001224210B50F48006820F070400D499A
:1017A00008600846006840F04050086001200A497F
:1017B00008600A49C1F8B001042000F075FF00205C
:1017C00005490860042000F06FFF00200349C1F8BC
:1017D000B00110BD000C0140AC01224200002242C9
:1017E00010B50F48006820F070400D4908600846A9
:1017F000006840F04050086000200A4908600A492B
:10180000C1F8AC01042000F04FFF01200549086039
:101810000549C1F8AC01042000F046FF10BD0000EE
:10182000000C0140B00122420000224210B5002409
:101830001448006820F070401249086008460068AB
:1018400040F00040086001200F49086000F02CFFC4
:1018500001200E49C1F8B00100F026FF07E0601C2E
:10186000C4B2FA2C03DDFFF7BBFF012010BD064810
:10187000803800680028F2D10349091D086000BFC4
:10188000F4E70000000C0140AC01224200002242BB
:1018900010B50648006838B90A2000F0DFFE03489A
:1018A000006808B9012010BD0020FCE71C0121429E
:1018B00010B50648006838B90A2000F0CFFE03488A
:1018C000006808B9012010BD0020FCE71801214282
:1018D00010B50648006838B90A2000F0BFFE03487A
:1018E000006808B9012010BD0020FCE71401214266
:1018F00010B50648006838B90A2000F0AFFE03486A
:10190000006808B9012010BD0020FCE70C0121424D
:1019100008B50121042000F04BFAE820ADF80000E2
:1019200048208DF8030069460148FFF748FE08BDCE
:101930000008014008B50121242000F039FA4FF4D5
:101940008070ADF8000010208DF8030003208DF8A2
:10195000020069460C48FFF732FE4FF480710A48D6
:10196000FFF7B8FE0420ADF8000010208DF803004A
:1019700003208DF8020069460448FFF720FE042189
:101980000248FFF7A7FE08BD00080140001401400F
:1019900000BFFEE77047000070B5002100230F2252
:1019A000C47804B3154C246804F4E064C4F5E0641E
:1019B000210AC1F10403CA40447804FA03F184788F
:1019C0001440214309010E4C0678A155047804F017
:1019D0001F050124AC4005786D11AD0005F1E0252F
:1019E000C5F8004109E0047804F01F050124AC406B
:1019F000044D0678761145F8264070BD0CED00E0E8
:101A000000E400E080E100E070B5002419E004F19A
:101A1000B001C8B2002100F02AF90021084600F008
:101A200026F90021102000F022F9002505E001210F
:101A3000002000F01CF9681CC5B2802DF7DB601C8B
:101A4000C4B2082CE3DB70BD10B5FFF747FE10BD34
:101A500010B5FFF7F9FF4FF4C87000F0FFFD00214B
:101A6000AE2000F004F90021084600F000F9002142
:101A7000102000F0FCF80021402000F0F8F80021D0
:101A8000B02000F0F4F80021812000F0F0F80021EF
:101A9000FF2000F0ECF80021A12000F0E8F8002180
:101AA000A62000F0E4F80021A82000F0E0F80021D2
:101AB0003F2000F0DCF80021C82000F0D8F8002119
:101AC000D32000F0D4F80021084600F0D0F800211F
:101AD000D52000F0CCF80021802000F0C8F80021CB
:101AE000D92000F0C4F80021F12000F0C0F8002156
:101AF000DA2000F0BCF80021122000F0B8F8002134
:101B0000DB2000F0B4F80021402000F0B0F8002104
:101B10008D2000F0ACF80021142000F0A8F800217E
:101B2000AF2000F0A4F8FFF76FFF0021084600F097
:101B300001F810BD70B504460D4605F1B001C8B2FC
:101B4000002100F094F804F00F00002100F08FF85D
:101B5000102141EA1410002100F089F870BD000046
:101B60002DE9F04180460E46154600273146404695
:101B7000FFF7E0FF00240AE0124A02EB8511085D3E
:101B8000012100F074F8781CC7B2601CC4B2102C9C
:101B9000F2DB701CC1B24046FFF7CCFF00240CE022
:101BA0006900491C074A02EB4111085D012100F060
:101BB0005EF8781CC7B2601CC4B2102CF0DBBDE824
:101BC000F0810000463C00082DE9F04107460E4632
:101BD000904600250024A8F12000C5B27F2F02DD29
:101BE0000027B01CC6B231463846FFF7A3FF0024D9
:101BF00008E004EB05110F4A505C012100F037F8B2
:101C0000601CC4B2082CF4DB701CC1B23846FFF76C
:101C100091FF002409E004EB05110831054A505CEE
:101C2000012100F024F8601CC4B2082CF3DBBDE8ED
:101C3000F0810000563600082DE9F04104460F46B9
:101C4000154600260EE0AA5D39462046FFF7BCFF88
:101C500004F10800C4B2802C02DB0024B81CC7B217
:101C6000701CC6B2A85D0028EDD1BDE8F08170B54A
:101C700005460C461CB1284600F098FC02E02846B8
:101C800000F084FC70BD000010B5FFF79DFB074914
:101C900008800748006800F027FC064801880648CD
:101CA00000F0BDFA00200549087010BD2A00002090
:101CB0002C000020280000200008004030000020F8
:101CC0002DE9F04104460021206801F007FA03D213
:101CD000206880F0004020600021606801F0FEF97B
:101CE00003D2606880F0004060600021A06801F0CD
:101CF000F5F903D2A06880F00040A0600021E06800
:101D000001F0ECF903D2E06880F00040E060206967
:101D1000E0612169206A01F045F820620021E06855
:101D200001F070F913D0E168206A01F0D7FA02D20D
:101D3000E06820620BE0E06880F000452846216AF8
:101D400001F0CCFA03D2E06880F000402062A16983
:101D5000206901F0F5FA60622069A061616AA068FB
:101D600001F0F0F90646216A606801F0EBF90746D8
:101D7000E169206801F0E6F98046394601F012F881
:101D80000546314601F00EF86061BDE8F08170470C
:101D900029B1064AD2690243044BDA6104E0034ADE
:101DA000D2698243014BDA617047000000100240A3
:101DB00029B1064A92690243044B9A6104E0034A3E
:101DC00092698243014B9A61704700000010024003
:101DD00030B500210022002400232D4D6D6805F050
:101DE0000C0121B1042905D0082923D105E0294D92
:101DF000056022E0274D05601FE0254D6D6805F464
:101E00007012234D6D6805F48034022505EB924273
:101E10001CB9214D554305600BE01D4D6D6805F45F
:101E200000351DB11C4D5543056002E0194D554369
:101E3000056002E0174D056000BF00BF144D6D68DE
:101E400005F0F0010909154D6B5C0568DD40456042
:101E50000F4D6D6805F4E061090A104D6B5C456833
:101E6000DD4085600A4D6D6805F46051C90A0B4D6F
:101E70006B5C4568DD40C560054D6D6805F440410B
:101E8000890B074D6B5CC568B5FBF3F5056130BD8B
:101E90000010024000127A0000093D0014000020EA
:101EA00024000020704710B500F002F810BD0000BB
:101EB0000CB50020019000903348006840F4803059
:101EC0003149086000BF3048006800F400300090DD
:101ED0000198401C0190009818B90198B0F5754F11
:101EE000F1D12948006800F4003010B101200090C1
:101EF00001E0002000900098012843D123480068A9
:101F000040F01000214908600846006820F00700F2
:101F100008600846006840F0020008601A484068FF
:101F2000194948600846406848600846406840F4DF
:101F3000806048600846406820F47C10486008468D
:101F4000406840F4E81048600846006840F080703F
:101F5000086000BF0C48006800F000700028F9D04D
:101F60000948406820F00300074948600846406877
:101F700040F00200486000BF0348406800F00C00D9
:101F80000828F9D10CBD00000010024000200240DA
:101F90000448006820B103480068401E01490860F9
:101FA000704700004000002010B51348006840F062
:101FB00001001149086008464068104908400E4970
:101FC0004860084600680E4908400B49086008460A
:101FD000006820F4802008600846406820F4FE0075
:101FE00048604FF41F008860FFF75DFF4FF000600E
:101FF0000449086010BD0000001002400000FFF816
:10200000FFFFF6FE08ED00E010B50121054800F0E5
:1020100092F830B10120044908700121014800F014
:102020007BF810BD00040040300000207FB505465D
:102030000C4601210220FFF7ABFEADF80850ADF8C9
:1020400004400020ADF80A00ADF8060001A90E48D2
:1020500000F0E8F8012211460B4800F07DF81D2041
:102060008DF8000000208DF8010003208DF802009B
:1020700001208DF803006846FFF78EFC012102481D
:1020800000F04DF87FBD00000004004030B589B07D
:1020900005460C4601210820FFF78AFE4FF48070A8
:1020A000ADF8200018208DF8230003208DF82200C1
:1020B00008A91748FFF783FA01210420FFF768FEFB
:1020C000ADF81850ADF814400020ADF81A00ADF886
:1020D000160005A90F4800F0A5F86020ADF804002F
:1020E0000120ADF806000020ADF80C006420ADF82A
:1020F0000A0001A9074800F039F80821054800F056
:1021000085F80121034800F00AF809B030BD00004D
:10211000000C014000080040CA430282704721B110
:10212000028842F00102028004E002884FF6FE734A
:102130001A400280704730B5024600200023002478
:10214000158A05EA0103958905EA010413B10CB16A
:10215000012000E0002030BD1AB183890B43838148
:1021600002E083898B4383817047000070B50024AF
:1021700000220023058C4FF6FF6635400584028C53
:102180008388848B4FF68F752C404FF6FC752C405E
:102190000D882C434FF6FF552A400D894FF6FF76E8
:1021A00006EA05252A434D8806EA05252A43154DEA
:1021B000A84202D0144DA8421DD14FF2FF752A400B
:1021C0004D894FF6FF7606EA05252A434FF6FF357F
:1021D0002A408D8806EA05252A434EF6FF752B40D6
:1021E0004DF6FF752B408D8906EA05152B43CD89E9
:1021F00006EA05152B4383808483CD888587028476
:1022000070BD0000002C0140003401400A4600214E
:10221000818B4FF6F7731940114381837047818793
:1022200070470000002202881D4B98420ED01D4BC3
:1022300098420BD0B0F1804F08D01B4B984205D08C
:102240001A4B984202D01A4B984204D14FF68F7322
:102250001A404B881A43174B984207D0164B9842A6
:1022600004D04FF6FF431A40CB881A4302808B8874
:1022700083850B8803850A4B98420BD0094B984203
:1022800008D00E4B984205D00D4B984202D00D4B12
:10229000984201D10B7A03860123838270470000A4
:1022A000002C0140003401400004004000080040C0
:1022B000000C0040001000400014004000400140AD
:1022C000004401400048014010B540F225510F483C
:1022D00000F042F860B1204600F0B0FB302C02D193
:1022E00000200B490870312C02D1012008490870E8
:1022F0000821064800F023F8012806D108210348E8
:1023000000F008F8014800F0E3F810BD0038014083
:102310003100002001F40072B2F5007F00D100BF4F
:10232000CA430280704721B1828942F400528281FF
:1023300004E082894DF6FF731A408281704702469D
:102340000020B1F5007F00D100BF13880B400BB116
:10235000012000E00020704770B5024600240023F1
:102360000025002040F66A16B14200D100BFC1F33B
:10237000421501F01F03012606FA03F3012D02D1D5
:102380009689334006E0022D02D1168A334001E0DF
:10239000968A33400C12012606FA04F4168834405B
:1023A00013B10CB1012000E0002070BDF0B5034670
:1023B000002400260025002040F66A17B94200D10B
:1023C00000BF1846C1F3421401F01F06012707FAA7
:1023D00006F5012C01D10C3004E0022C01D11030A3
:1023E00000E014301AB107682F43076002E0076865
:1023F000AF430760F0BD00002DE9F04786B0054609
:102400000E460024A24600BFA1460027B08900B1B5
:1024100000BF2F462C8A4CF6FF700440F08804431E
:102420002C82AC894EF6F3100440B0883189084301
:10243000718908430443AC81AC8A4FF6FF400440E5
:10244000B0890443AC8201A8FFF7C2FC1F48874251
:1024500002D1DDF810A001E0DDF80CA0A88900F49D
:10246000004040B10AEBCA0000EB0A103168490095
:10247000B0FBF1F807E00AEBCA0000EB0A10316884
:102480008900B0FBF1F86420B8FBF0F004012009EA
:10249000642101FB1089A88900F4004040B132207A
:1024A00000EBC900B0FBF1F000F00700044308E0C6
:1024B000322000EB09106421B0FBF1F000F00F00B6
:1024C00004432C8106B0BDE8F087000000380140CD
:1024D00001468888C0F308007047C1F30802828073
:1024E000704700BFFEE7000070B504461C48B0F915
:1024F000000000F0DBFD05461A4900F0C1FC1A4956
:1025000008601A480460084601681848006800F02E
:1025100017FF1749086117480860174848601748AF
:1025200088601748C8600846FFF7CAFB1049486929
:10253000002100F0D3FD02D800200D4948610C496C
:102540004869104900F0CAFE02D80E48084948619F
:102550000749486900F08AFD0B49088070BD0000FA
:102560002A00002000002041380000203400002014
:102570004400002000008C426666A63F0AD7233C38
:102580000000FA4300C079442800002010B504463A
:10259000FFF700F97820FFF7BDF80020FFF7BAF841
:1025A0002046FFF7B7F8FFF71BF910BD10B504463A
:1025B000FFF7F0F87820FFF7ADF84020FFF7AAF812
:1025C0002046FFF7A7F8FFF70BF910BD490050EAC6
:1025D000C12018BF04204A0D18BF40F0010040F28E
:1025E000FF72B2EB515F08BF40F00200012808BF44
:1025F0000520704730380A2801D20120704700209A
:10260000704700004FF0E020006920F004004FF018
:10261000E02108610D4800680D49B0FBF1F00D495B
:1026200008700846007800EB4001C1EBC0104FF67F
:10263000FF7101EAC000084908804FF0E0200069FE
:1026400020F001004FF0E0210861704700000020F9
:1026500000127A003C0000203E0000200146114A92
:1026600012884A434FF0E0235A6100229A611A46C9
:10267000126942F001021A6100BF4FF0E0221069B6
:1026800000F001021AB100F48032002AF5D04FF0B8
:10269000E022126922F001024FF0E0231A610022C9
:1026A0009A6170473E0000200146114A12784A4361
:1026B0004FF0E0235A6100229A611A46126942F0F3
:1026C00001021A6100BF4FF0E022106900F0010220
:1026D0001AB100F48032002AF5D04FF0E0221269DE
:1026E00022F001024FF0E0231A6100229A61704744
:1026F0003C0000208AB0FFF785FFFFF71BF9FEF7CB
:10270000D3FEFFF705F9FFF7A3F940F6282142F2BF
:102710000670FFF78BFC112140F2E730FFF7B6FCA3
:102720004FF4E13000F03AF913E1002089490860E4
:102730008948007808B1FFF7A7FAFEF745FE07467B
:1027400000F0B4FC0646854900F09AFB0546284691
:1027500000F0FCFA064632460B4681A107A8FDF7B9
:1027600043FD814800880A2190FBF1F632467F48FC
:102770000168284600F072F90024FFF789F818B1C3
:102780000124C820FFF76AFF002C79D100221146EE
:102790001420FFF7E5F9012200212320FFF7E0F9DB
:1027A000022200213220FFF7DBF903220021412021
:1027B000FFF7D6F9042200215020FFF7D1F90522B6
:1027C00000215F20FFF7CCF9062202210020FFF74D
:1027D000C7F9072202210F20FFF7C2F900220221C8
:1027E0001E20FFF7BDF9012202212D20FFF7B8F9C5
:1027F0005FA202214120FFF71FFA07AA02214B2006
:10280000FFF71AFA5948006800F0A0FA0646324667
:102810000B4653A104A8FDF7E7FC08220421002081
:10282000FFF79EF9092204210F20FFF799F90022F2
:1028300004211E20FFF794F9012204212D20FFF727
:102840008FF94BA204214120FFF7F6F904AA0421D5
:102850004B20FFF7F1F947A206210020FFF7ECF922
:10286000414800880A2190FBF1F6324643A101A8B5
:10287000FDF7BAFC01AA06211E20FFF7DDF900BF13
:10288000012C65D1FFF7C0F860E03EA203210020D3
:10289000FFF7D2F93FA205210020FFF7CDF90D2265
:1028A00005212820FFF75CF90E2205213720FFF7CC
:1028B00057F92E48006800F049FA064632460B46A2
:1028C00027A104A8FDF790FC082200210846FFF785
:1028D00047F9092200210F20FFF742F90022114693
:1028E0001E20FFF73DF9012200212D20FFF738F9C6
:1028F0001FA200214120FFF79FF904AA00214B20CD
:10290000FFF79AF9FEF7D4FF38B14FF07E51174820
:10291000006800F047FA15490860FEF7D9FF38B1A2
:102920004FF07E511148006800F00AFD0F49086021
:10293000FEF7DEFF0646FEF7ABFF06432EB100248E
:10294000C820FFF78BFEFFF75FF800BF012C9CD07B
:1029500000BFEAE6A0012142300000200000204133
:10296000252E316600000000280000202C000020E9
:102970003D00000050574D3A00000000253364250B
:10298000250000006B657932202B20206B657933A0
:10299000202D00006B6579343D00000010B586B035
:1029A0000446012144F20400FFF702FA4FF40070DC
:1029B000ADF8140003208DF8160018208DF81700CC
:1029C00005A91C48FEF7FBFD4FF48060ADF814002C
:1029D00004208DF8170005A91648FEF7F0FD252004
:1029E0008DF8000003208DF801008DF80200012011
:1029F0008DF803006846FEF7CFFF01940020ADF884
:102A00000800ADF80A00ADF80C00ADF810000C207D
:102A1000ADF80E0001A90848FFF7EEFC012240F2D4
:102A200025510548FFF7C2FC01210348FFF77BFC55
:102A300006B010BD000801400038014010B5044642
:102A400021460548FFF749FD00BF40210248FFF736
:102A500076FC0028F9D010BD0038014077B583B06E
:102A600005460E46AA208DF80000CDF80150CDF89D
:102A70000560BDF81400ADF8090055208DF80B0075
:102A8000002404E01DF80400FFF7D8FF641C0C2CA0
:102A9000F8DB06B070BD000010B500290AD0087838
:102AA000002807D005487844FEF754F8002801D0E4
:102AB000002010BD0248784410BD0000161600002A
:102AC0000E1600004FEA41034FEA5353A3F580630B
:102AD000D3F11E03C8BFD3F1210C0CDD4FF000422F
:102AE00042EAC12242EA505232FA03FC8CEAE17C0B
:102AF000ACEBE1707047102BC4BF0020704703F5AA
:102B0000787CBCF1FF3F04D06FF0004282EA2100E4
:102B1000704770B500F0C6F84992248000207047D5
:102B2000F2E710F0004248BF4042B0FA80F310FADA
:102B300003F10AD0C3F11D0303F580634FEA41504E
:102B400002EB035202EBD12170474FF000007047B7
:102B5000DFF848C170B51CEA111E1EBF1CEA131530
:102B60009EEA0C0F95EA0C0F00F06F8081EA0304D7
:102B700023EA4C134EEAD47E21EA4C1141F4801131
:102B800043F48013AE44A1FB024CA0FB0365AEF1FD
:102B90007F7E361955EB0C05A1FB034C4CF100036D
:102BA000A0FB021C16EB0C06654153F10003094221
:102BB00018BF46F0010613F4007F0BD14FEA033132
:102BC0004FEA0530340341EA155140EA16506FF0E0
:102BD00003020AE04FEAC3214FEAC520F40241EAAA
:102BE000555140EA56506FF0020202EB2E4201EBC3
:102BF000025585EACE710AD05FEA440C18BF24F072
:102C0000004450F1000041F1000120EAD47040F28C
:102C1000FE7C624500D270BDA84214BF4FF08044D4
:102C20004FF04044002E08BF0024BEF1806FA8BFC3
:102C3000A1F1C041BDE8704080F282804FF00000F9
:102C400001F1C04101F0004170479EEA0C0F0CEA0F
:102C5000131518BF95EA0C0F06D04FF0000081EA5B
:102C6000030E0EF0004170BD00F01CF88900013E1B
:102C700000F007B800F009B84FEA430C5FEA5C5C6B
:102C800008D081EA030100F05BB84FEA410C5FEA2B
:102C90005C5CF6D14FF00000014970470000FF076F
:102CA0000000F87F0EF1020E2EF0030E5EF8046BAA
:102CB000364205D4012A43EB030515F5001F12D84F
:102CC000012841EB010C1CF5001F0CD80ED14FEA76
:102CD000D17C15F5001F0CEB4C0C0CF1020C08BF5D
:102CE0004CEBD37C04E04FF0080C01E04FEAD37CBE
:102CF0000CEB4C0526FA05F606F00706B6F1040CB7
:102D000006D20EEB860CBDE870404CF0010C60471B
:102D1000DFE80CF0090B02024FF000414FF0000019
:102D2000A1F5002170BD19461046012851EB0104A0
:102D300018BFD4F5001484BF002001F0004170BD1D
:102D40000808A0F500114FEA3101704743004FEA2F
:102D5000D30C4FEA3C0C43401FBF40070CF16051BD
:102D600013F0FE4F70471CF0006F03D100200CF0F1
:102D7000004170470CF0004343EA507010B540EA40
:102D8000CC0000F060FA00BF000000924FEA0001A2
:102D9000FFF7D6BF4FF000414FF00000A1F5002132
:102DA0007047000090EA010F48BF81F0004100F138
:102DB000CE82421A3CBF801A89184FEAD0524FF097
:102DC0007F4C1CEA410FA2EBD15318BF9CEA026F63
:102DD00000F03B804FF0004C4CEA00204CEA01210F
:102DE00021FA03FC10EB0C0C1ED202F1FF325FEA59
:102DF0001C2040EBC25038BF70471CF07F0F4FEAD9
:102E0000400C18BFBCF17F4F38BF7047C3F120039F
:102E1000994008BF20F00100BCF17F4F38BF7047D8
:102E2000A0F1C04000F055BA4FEA3C00000A40EB68
:102E3000C25028BF1CF0FF0F4FEA400CE6D018BF6D
:102E4000BCF17F4F38BF7047EAE79CEA026F05D0BC
:102E500010EA5C0F08BF00F00040704710B500F0AA
:102E6000F2F900BF64FBBE3E401058BFC0F14040C5
:102E7000491058BFC1F140418142EFF300807047D3
:102E80004FF47F0C1CEAD0121EBF1CEAD11392EA49
:102E90000C0F93EA0C0F00F0858090EA010F48BFF9
:102EA00042F4807240F4000C41F400002CF07F41A9
:102EB00020F07F4000B58142A2EB03020FF2081C14
:102EC000ACEB504EC0F100009EF800E04FEA4E0E11
:102ED00000FB0EFC38BF49004FEA2C1C02F5FA0239
:102EE0000CFB0EF34FEACE1E4FEA112C4FEAC12124
:102EF0000EEB635E42EB22420EFB0CFC4FEA1C53CE
:102F000000FB03114FEA112C4FEA01310EFB0CFCC0
:102F10004FEADC4C00FB0C11C14228BF09184CEBF6
:102F200003335DF804EB10EB410143EBC250B2F503
:102F30007C0F38BF704729D512F0F00F1CBF00F18D
:102F4000C04000F0004070470081828384858687FE
:102F500088898B8C8D8E8F919293959697999A9C58
:102F60009D9FA0A2A3A5A7A8AAACAEB0B2B3B5B7C7
:102F7000B9BCBEC0C2C5C7C9CCCED1D4D7D9DCDF9D
:102F8000E2E6E9ECF0F3F7FAFE0000004FEA400C4D
:102F90000CF1807CBCF17E4F28BF7047B0F1C0407F
:102FA00000F097B990EA010F0CEAD11348BF42F440
:102FB0008072624538BF634507D213F47F0F16D085
:102FC00080EA010000F00040704710B500F03BF9C6
:102FD000097EFC3E00F005B880EA010000F00040E8
:102FE000704780EA010000F0004000F072B912F46E
:102FF0007F0F04BF0248704780EA010000F069B902
:103000000000C07F50EA010C00F113801CF5000F96
:1030100058BFBCF5000F01D48842704707D710F5A0
:10302000000F58BF11F5000F15D488427047894230
:1030300070471CF5000F04D5BCF5000FF7D5814291
:1030400070474FF0807C1CEB400F38BF1CEB410FEA
:1030500001D28142704710B500F0F5F89224490082
:103060004FF000504FF08051FFF7FEBEC10DD1F17F
:103070009E0206DB4FEA002343F0004323FA02F0EE
:103080007047004207D54FEA4001B1F1FE4F02D22E
:103090004FF00000704710B500F0D5F84992248039
:1030A000002070476FEA20007047000010F00041D8
:1030B00048BF4042B0FA80F310FA03F2C3F19D0317
:1030C0000BD051EAC35101EB1220530638BF7047B1
:1030D00000F1010008BF20F00100704750EA010C28
:1030E00000F113801CF5000F58BFBCF5000F01D490
:1030F0008842704707D710F5000F58BF11F5000F31
:1031000015D488427047894270471CF5000F04D5DA
:10311000BCF5000FF7D5814270474FF0807C1CEB67
:10312000400F38BF1CEB410F01D28142704710B5F0
:1031300000F089F8922449004FF000504FF0805180
:10314000FFF792BE4FF47F0C1CEAD0121EBF1CEAA0
:10315000D11392EA0C0F93EA0C0F00F0478090EA2B
:10316000010F48BF42F480724FF0004C4CEA00203F
:103170004CEA012102EB0302A0FB0113A2F50002BD
:10318000002918BF43F001035B0028BF4FEA330357
:1031900042EB22425FEA132C4CEBC2502EBFBCEB39
:1031A000436FB2F57C0F70474FEA036CBCF1004FE0
:1031B00008BF20F00100B2F57C0F38BF70470BD577
:1031C00082F0FF0212F5803FC8BF704700F1C04097
:1031D000D8BF00F00040704700F5000C5FEA4C0CCF
:1031E00048BF7047B0F1C04000F073B890EA010FDB
:1031F0000CEAD11348BF42F48072624538BF634580
:1032000004D280EA010000F00040704710B500F0E1
:103210001AF800BF8900013E00F007B800F009B8B5
:103220005FEA410C5FEA1C6C08D080EA010000F004
:1032300050B85FEA400C5FEA1C6CF6D14FF00040DA
:10324000A0F5800070470EF1020E2EF0030E5EF81E
:10325000044B244204D44FEA4102B2F17F4F11D80B
:103260004FEA4003B3F17F4F0CD80ED14FEAD07C28
:10327000B2F17F4F0CEB4C0C0CF1020C08BF4CEB85
:10328000D17C04E04FF0080C01E04FEAD17C0CEB5C
:103290004C0324FA03F404F00704B4F1040C06D23E
:1032A0000EEB840CBDE810404CF0010C6047DFE8E9
:1032B0000CF0070802024FF00040A0F5800010BD9E
:1032C0000846420018BFD2F1807288BF00F000406B
:1032D00010BDFF2141EAD050C005704751EA000CF3
:1032E00000F113801CF5000F58BFBCF5000F01D48E
:1032F0008142704707D711F5000F58BF10F5000F36
:1033000015D481427047894270471CF5000F04D5DF
:10331000BCF5000FF7D5884270474FF0807C1CEB5E
:10332000410F38BF1CEB400F01D28842704780EA42
:10333000010081EA000180EA0100FFF7F8BE000009
:1033400090EA010F48BF81F000413FF532AD421ACB
:1033500004D882F00042A0EB020011444FEAD052A0
:103360004FF07F4C1CEA410FA2EBD15318BF9CEAEF
:10337000026F4AD04FF0004C4CEA00204CEA012189
:1033800021FA03FCB0EB0C0C0FD412F0FE0F36D078
:103390005FEA4C001DD5001240EBC25038BF7047A9
:1033A0001CF03F0F18BF70470BE0A2F101025FEA6B
:1033B0001C2040EBC25038BF70471CF07F0F18BF75
:1033C0007047C3F12003994014BF401E20F0010054
:1033D000704780084FEA122308BF7047B0FA80FC9C
:1033E000A2EB0C02CCF1280C60FA0CF093EA122F3D
:1033F00004BF00EBC25070474FEAC3707047130A16
:103400005FEADC1008BF7047F6E79CEA026F04D061
:1034100010EA5C0F08BF0020704710B5FFF713FFDC
:1034200040DFF63E81F000407047FDF711B9000023
:10343000000000000000002F00000000070007004F
:1034400000147F147F1400242A7F2A12006264086B
:1034500013230036495522500000050300000000E8
:103460001C224100000041221C000014083E0814E8
:103470000008083E0808000000A0600000080808D6
:103480000808000060600000002010080402003EF0
:103490005149453E0000427F40000042615149468B
:1034A000002141454B31001814127F10002745457B
:1034B0004539003C4A49493000017109050300368D
:1034C0004949493600064949291E000036360000A0
:1034D00000005636000000081422410000141414A5
:1034E00014140000412214080002015109060032A0
:1034F0004959513E007C1211127C007F49494936DE
:10350000003E41414122007F4141221C007F494948
:103510004941007F09090901003E4149497A007F7C
:103520000808087F0000417F4100002040413F0122
:10353000007F08142241007F40404040007F020C81
:10354000027F007F0408107F003E4141413E007F22
:1035500009090906003E4151215E007F09192946EB
:103560000046494949310001017F0101003F4040C7
:10357000403F001F2040201F003F4038403F006375
:103580001408146300070870080700615149454397
:1035900000007F41410000552A552A550000414155
:1035A0007F0000040201020400404040404000004F
:1035B00001020400002054545478007F48444438E9
:1035C00000384444442000384444487F0038545470
:1035D000541800087E0901020018A4A4A47C007FEE
:1035E000080404780000447D4000004080847D0091
:1035F000007F102844000000417F4000007C041838
:103600000478007C0804047800384444443800FC02
:10361000242424180018242418FC007C080404081E
:1036200000485454542000043F444020003C404093
:10363000207C001C2040201C003C4030403C0044CA
:1036400028102844001CA0A0A07C004464544C44D2
:1036500014141414141400000000000000000000F2
:10366000000000000000000000F800000000000062
:1036700000333000000000100C06100C06000000A3
:1036800000000000000040C07840C0784000043FC7
:1036900004043F040400007088FC08300000001897
:1036A00020FF211E0000F008F000E01800000021BB
:1036B0001C031E211E0000F00888700000001E215F
:1036C00023241927211010160E000000000000000E
:1036D000000000000000000000E0180402000000EC
:1036E00000071820400000020418E000000000401D
:1036F000201807000000404080F080404000020297
:10370000010F01020200000000F0000000000101B2
:10371000011F01010100000000000000000080B056
:103720007000000000000000000000000000000128
:103730000101010101010000000000000000003053
:1037400030000000000000000000806018040060ED
:1037500018060100000000E010080810E000000F4B
:10376000102020100F00001010F8000000000020B2
:10377000203F2020000000700808088870000030FA
:1037800028242221300000300888884830000018A2
:10379000202020110E000000C02010F800000007BB
:1037A0000424243F240000F8088888080800001931
:1037B000212020110E0000E0108888180000000F62
:1037C000112020110E0000380808C8380800000039
:1037D000003F000000000070880808887000001C8E
:1037E000222121221C0000E010080810E000000047
:1037F000312222110F00000000C0C00000000000B4
:1038000000303000000000000080000000000000D8
:1038100080600000000000008040201008000001CF
:103820000204081020004040404040404000040492
:10383000040404040400000810204080000000205C
:10384000100804020100007048080808F000000099
:10385000003036010000C030C828E810E00007182A
:10386000272423140B000000C038E0000000203C97
:1038700023020227382008F8888888700000203F3B
:10388000202020110E00C030080808083800071852
:1038900020202010080008F808080810E000203F49
:1038A000202020100F0008F88888E8081000203F2A
:1038B00020202320180008F88888E8081000203FFE
:1038C000200003000000C030080808380000071876
:1038D0002020221E020008F808000008F808203FF7
:1038E000210101213F20000808F8080800000020FD
:1038F000203F2020000000000808F8080800C080D1
:1039000080807F00000008F888C028180800203F49
:1039100020012638200008F8080000000000203FA1
:1039200020202020300008F8F800F8F80800203F98
:10393000003F003F200008F830C00008F808203F92
:10394000200007183F00E01008080810E0000F10E2
:10395000202020100F0008F808080808F000203F79
:10396000210101010000E01008080810E0000F1814
:10397000242438504F0008F8888888887000203F39
:103980002000030C30200070880808083800003838
:10399000202121221C00180808F80808180000003F
:1039A000203F2000000008F808000008F808001F69
:1039B000202020201F000878880000C83808000058
:1039C00007380E010000F80800F80008F800033C72
:1039D0000700073C0300081868808068180820303A
:1039E0002C03032C30200838C800C8380800000019
:1039F000203F2000000010080808C83808002038C0
:103A0000262120201800000000FE02020200000013
:103A1000007F40404000000C30C00000000000006B
:103A200000010638C00000020202FE000000004053
:103A300040407F0000000000040202020400000079
:103A40000000000000000000000000000000808076
:103A5000808080808080000202040000000000005E
:103A6000000000000000000080808080000000193D
:103A7000242222223F2008F8008080000000003F1E
:103A8000112020110E000000008080800000000E38
:103A9000112020201100000000808088F800000E16
:103AA000112020103F200000808080800000001F37
:103AB000222222221300008080F0888888180020AB
:103AC000203F202000000000808080808000006B6C
:103AD00094949493600008F8008080800000203F58
:103AE000210000203F200080989800000000002066
:103AF000203F20200000000000809898000000C0B7
:103B00008080807F000008F8000080808000203FD7
:103B100024022D302000000808F8000000000020DA
:103B2000203F202000008080808080808000203F17
:103B300020003F20003F8080008080800000203FE8
:103B4000210000203F200000808080800000001FB6
:103B5000202020201F00808000808000000080FF47
:103B6000A12020110E000000008080808000000E47
:103B7000112020A0FF808080800080808000202095
:103B80003F21200001000000808080808000003301
:103B9000242424241900008080E08080000000009C
:103BA000001F202000008080000000808000001F97
:103BB000202020103F208080800000808080000135
:103BC0000E300806010080800080008080800F3069
:103BD0000C030C300F0000808000808080000020EB
:103BE000312E0E3120008080800000808080808116
:103BF0008E70180601000080808080808000002187
:103C0000302C2221300000000000807C02020000E5
:103C10000000003F404000000000FF0000000000E6
:103C20000000FF0000000002027C80000000004055
:103C3000403F0000000000060101020204040000F1
:103C40000000000000001060028C0000FE929292C2
:103C50009292FE0000000000000000000000000042
:103C600000000000000004047E01407E42427E42CB
:103C70007E42427E40000000000000000000000084
:103C80000000000000000000FC242424FC25262461
:103C9000FC242424040000000000000000000000B8
:103CA00000000000000040308F80844C5525252501
:103CB000554C8080800000000000000000000000E3
:103CC00000000000000000007E0000FF0040300FF8
:103CD0000414640400000000000000000000000064
:103CE00000000000000040407E42427E4242427E90
:103CF00042427E4040000000000000000000000042
:103D00000000000000001060028C00FE02F202FEC3
:103D100000F800FF000000000000000000000000AC
:103D200000000000000004047E018047300F1027CF
:103D30000047807F0000000000000000000000003D
:103D4000000000000000000022322AA6A262211119
:103D500009810100000000000000000000000000D8
:103D6000000000000000004222130B42827E02028B
:103D70000A122346000000000000000000000000BE
:103D80000000000000002030AC63300088C8A89913
:103D90008E88A8C888000000000000000000000015
:103DA00000000000000022672212128040300F0045
:103DB000003F4040710000000000000000000000D3
:103DC000000000000000004042445840407F404056
:103DD0005048C60000000000000000000000000085
:103DE0000000000000000040444444444444444473
:103DF0004444FF000000000000000000000000003C
:103E00000000000000000808E8292E28E80808C87B
:103E10000C0BE80808000000000000000000000093
:103E20000000000000000000FF0949897F00000F2A
:103E300040807F0000000000000000000000000043
:103E4000000000000000404042CC0040A09E828262
:103E5000829EA02020000000000000000000000062
:103E60000000000000000000003F908840432C103C
:103E70002846418080000000000000000000000093
:103E8000000000000000100C4444444445C6444473
:103E9000444444140C000000000000000000000036
:103EA0000000000000008040201E2040407F44446D
:103EB00044444440400000000000000000000000B6
:103EC0000000000000001010D0FF90100042E252ED
:103ED0004AC64240C0000000000000000000000090
:103EE000000000000000040300FF0023108C4320AA
:103EF000184780403F000000000000000000000064
:103F0000000000000000080889EE98000000FF0093
:103F100000000000000000000000000000000000A1
:103F2000000000000000020100FF000300003F400D
:103F30004040407800000000000000000000000049
:103F400000000000000004C444444FC40404E424FE
:103F50002F2424E404000000000000000000000002
:103F6000000000000000003F1212123F80403F0995
:103F70000949897F000000000000000000000000E7
:103F80000000000000000484E45C44C42010E82722
:103F900024E4342CE00000000000000000000000D9
:103FA00000000000000002017F10103F80601F0928
:103FB000093F49897F000000000000000000000068
:103FC000000000000000404042CC0000000000FF64
:103FD00000000000000000000000000000000000E1
:103FE0000000000000000000003F9048201807007B
:103FF00007182040800000000000000000000000C2
:10400000000000000000000002400000000000A0CE
:104010000000000005400000000000C80000000093
:104020000C4000000000409C00000000194000000F
:104030000020BCBE0000000034400000BFC91B8E41
:1040400000000004B5400000504BCFD06607E2CF1F
:10405000010000006C4100003E8251AADFEEA7344F
:1040600001000000D9420000DCB5A0E23A301F9701
:10407000FFFFFFFFB4450000FD25A0C8E9A3C14F25
:10408000FFFFFFFFFF3F0000000000800000000076
:10409000FF3F00000000008000000000D840000842
:1040A0000000002044000000280100081C41000816
:1040B000440000208C060000440100081C000000A1
:1040C00043000000F8FFFFFF0C0000000E0000009E
:1040D0000F0000002E00000000A24A0400000000B3
:1040E00000000000010203040607080900000000A8
:1040F000010203040102030406070809020406087A
:10410000000000000000C8410000000000000000A6
:0C411000000000000000000000000000A3
:04000005080000ED02
:00000001FF
