:020000040800F2
:100000008006002089010008D1030008630300086E
:10001000CD03000843020008590500080000000055
:10002000000000000000000000000000F5030008D0
:100030004702000800000000D3030008E1040008A4
:10004000A3010008A3010008A3010008A301000800
:10005000A3010008A3010008A3010008A3010008F0
:10006000A3010008A3010008A3010008A3010008E0
:10007000A3010008A3010008A3010008A3010008D0
:10008000A3010008A3010008A3010008A3010008C0
:10009000A3010008A3010008A3010008A3010008B0
:1000A000A3010008A3010008A3010008A3010008A0
:1000B000A3010008A3010008A3010008A301000890
:1000C000A3010008A3010008A3010008A301000880
:1000D000A3010008A3010008A3010008A301000870
:1000E000A3010008A3010008A301000800F002F822
:1000F00000F03AF80AA090E8000C82448344AAF188
:100100000107DA4501D100F02FF8AFF2090EBAE885
:100110000F0013F0010F18BFFB1A43F0010318473B
:100120006805000088050000103A24BF78C878C12F
:10013000FAD8520724BF30C830C144BF04680C60ED
:10014000704700000023002400250026103A28BF35
:1001500078C1FBD8520728BF30C148BF0B60704739
:100160001FB51FBD10B510BD00F031F81146FFF7E7
:10017000F7FF00F067FA00F04FF803B4FFF7F2FF63
:1001800003BC00F057F800000948804709480047C1
:10019000FEE7FEE7FEE7FEE7FEE7FEE7FEE7FEE737
:1001A000FEE7FEE704480549054A064B7047000094
:1001B000F9040008ED0000088000002080060020FF
:1001C000800200208002002070477047704775460B
:1001D00000F02CF8AE4605006946534620F00700B3
:1001E000854618B020B5FFF7DDFFBDE820404FF091
:1001F00000064FF000074FF000084FF0000B21F011
:100200000701AC46ACE8C009ACE8C009ACE8C009DD
:10021000ACE8C0098D46704710B50446AFF30080C6
:100220002046BDE81040FFF7A8BF00000048704717
:100230001C00002001491820ABBEFEE7260002008A
:10024000704700BFFEE770472DE9F04102460025E8
:100250000026002000230024002791F803C00CF0A2
:100260000F0591F803C00CF0100CBCF1000F03D087
:1002700091F802C04CEA050591F800C0BCF1000FEE
:1002800031D0146800202BE04FF0010C0CFA00F381
:10029000B1F800C00CEA03069E4220D183004FF063
:1002A0000F0C0CFA03F7BC4305FA03FC4CEA0404F8
:1002B00091F803C0BCF1280F06D14FF0010C0CFAE5
:1002C00000FCC2F814C00AE091F803C0BCF1480F6A
:1002D00005D14FF0010C0CFA00FCC2F810C0401C14
:1002E0000828D1D31460B1F800C0BCF1FF0F34DD91
:1002F000546800202EE000F1080C4FF0010808FAC5
:100300000CF3B1F800C00CEA03069E4221D1830031
:100310004FF00F0C0CFA03F7BC4305FA03FC4CEA50
:10032000040491F803C0BCF1280F05D100F1080CBA
:1003300008FA0CF8C2F8148091F803C0BCF1480F19
:1003400007D100F1080C4FF0010808FA0CF8C2F8C8
:100350001080401C0828CED35460BDE8F0810161B4
:10036000704700BFFEE7000008B50121102000F033
:1003700031F84FF40050ADF8000010208DF8030064
:1003800003208DF8020069460E48FFF75DFF4FF429
:1003900000510C48FFF7E3FF0121082000F01AF894
:1003A0000220ADF8000010208DF8030003208DF826
:1003B000020069460448FFF747FF02210248FFF7A1
:1003C000CEFF08BD00100140000C014000BFFEE759
:1003D0007047704729B1064A92690243044B9A61FB
:1003E00004E0034A92698243014B9A61704700001E
:1003F00000100240704710B500F002F810BD000078
:100400000CB50020019000903348006840F4803023
:100410003149086000BF3048006800F400300090A7
:100420000198401C0190009818B90198B0F5754FDB
:10043000F1D12948006800F4003010B1012000908B
:1004400001E0002000900098012843D12348006873
:1004500040F01000214908600846006820F00700BD
:1004600008600846006840F0020008601A484068CA
:10047000194948600846406848600846406840F4AA
:10048000806048600846406820F47C104860084658
:10049000406840F4E81048600846006840F080700A
:1004A000086000BF0C48006800F000700028F9D018
:1004B0000948406820F00300074948600846406842
:1004C00040F00200486000BF0348406800F00C00A4
:1004D0000828F9D10CBD00000010024000200240A5
:1004E0000448006820B103480068401E01490860C4
:1004F000704700001800002010B51348006840F055
:1005000001001149086008464068104908400E493A
:100510004860084600680E4908400B4908600846D4
:10052000006820F4802008600846406820F4FE003F
:1005300048604FF41F008860FFF75DFF4FF00060D8
:100540000449086010BD0000001002400000FFF8E0
:10055000FFFFF6FE08ED00E000BFFEE730B56FF0EC
:100560000401B1F1807F00D31DE021F07F40401EE7
:100570004FF0E022506150170F22002807DA1307CE
:100580001D0E174B00F00F04241F1D5503E0130729
:100590001C0E144B1C5400BF00204FF0E022906151
:1005A0000720106100BF104800681049B0FBF1F04F
:1005B0000F4908700846007800EB4001C1EBC010FD
:1005C0004FF6FF7101EAC0000A4908804FF0E020B1
:1005D000006920F001004FF0E021086130BD00000B
:1005E00018ED00E000E400E00000002000127A00B6
:1005F00014000020160000200146114A12884A43C8
:100600004FF0E0235A6100229A611A46126942F0C3
:1006100001021A6100BF4FF0E022106900F00102F0
:100620001AB100F48032002AF5D04FF0E0221269AE
:1006300022F001024FF0E0231A6100229A61704714
:100640001600002010B5FFF78FFEFFF787FF002090
:100650000B49086008600B4908604FF4FA70FFF717
:10066000CBFF012006490860064908604FF4FA7084
:10067000FFF7C2FF0020024908600249086010BD70
:10068000B401224284812142A80600080000002013
:100690001C00000028010008C40600081C000020FF
:1006A000640600004401000800A24A0400000000A3
:1006B0000000000001020304060708090000000012
:0406C0000000000036
:04000005080000ED02
:00000001FF
